:020000040800F2
:1000000060D800206950010825D2000827D20008D6
:100010002BD200082FD2000833D2000800000000C5
:1000200000000000000000000000000037D20008BF
:1000300039D20008000000003BD200083DD2000881
:100040008350010883500108835001088350010840
:100050008350010883500108835001088350010830
:100060008350010883500108835001088350010820
:100070008350010883500108835001088350010810
:100080008350010883500108835001088350010800
:10009000F3D800088350010883500108295900084B
:1000A000835001082BF50008835001088350010894
:1000B00083500108835001088350010883500108D0
:1000C00083500108835001088350010883500108C0
:1000D00083500108835001080D30010845300108A4
:1000E00083500108835001088350010883500108A0
:1000F0008350010883500108835001088350010890
:10010000835001088350010883500108835001087F
:10011000835001088350010883500108835001086F
:10012000835001088350010883500108835001085F
:10013000835001088350010883500108835001084F
:100140003FD2000883500108835001088350010802
:10015000835001088350010883500108835001082F
:10016000835001088350010883500108835001081F
:10017000835001088350010883500108835001080F
:10018000835001088350010800F002F800F05CF889
:100190000AA090E8000C82448344AAF10107DA45E2
:1001A00001D100F051F8AFF2090EBAE80F0013F0D8
:1001B000010F18BFFB1A43F0010318472CA00100E0
:1001C0004CA001000A444FF0000C10F8013B13F062
:1001D000070408BF10F8014B1D1108BF10F8015BA0
:1001E000641E05D010F8016B641E01F8016BF9D193
:1001F00013F0080F1EBF10F8014BAD1C0C1B09D1EA
:100200006D1E58BF01F801CBFAD505E014F8016B5B
:1002100001F8016B6D1EF9D59142D6D370470000ED
:100220000023002400250026103A28BF78C1FBD8FF
:10023000520728BF30C148BF0B6070471FB519F087
:1002400028FF1FBD10B510BD18F048F81146FFF784
:10025000F5FF03F08BFA18F066F803B4FFF7F2FF2E
:1002600003BC12F0B1FD000008B502468DF8002075
:100270008DF80110BDF9000008BD08B58DF800002B
:100280008DF801108DF802208DF803309DED000AE5
:1002900008BD10B50020FE4908700AE0FD48FC4981
:1002A0000978405CFC490860F9480078401CF8492E
:1002B0000870F7480078F94909788842EEDB012098
:1002C0000AF020FF0120F6490860F6490870F64858
:1002D0000068401CF449086010BD70B50024002679
:1002E00000255A20EB490870542048701720887068
:1002F0001020C870E120087107204871EB48007891
:100300008871EA480088000AC871E8480068000C53
:100310000872E6480068000E4872E5480078887266
:10032000E4480078C872AA200873062404E0D9487B
:10033000005D0544601CC4B20D2CF8DB6842C6B2F7
:10034000D44846735A20D3498873FE20C8731020BE
:10035000D2490870FFF79DFF70BD70B500240026DC
:1003600000255A20CB490870542048701720887007
:100370001020C8704E20087105204871CB480078C5
:100380008871CA480088000AC871C8480068000C13
:100390000872C6480068000E487200208872062461
:1003A00004E0BC48005D0544601CC4B20B2CF8DBC3
:1003B0006842C6B2B748C6725A20B6490873FE20D2
:1003C00048730E20B5490870FFF763FFB9480078FD
:1003D000B949087070BD70B5002400260025B748E3
:1003E000807ACA2803D1B6480068B04908605A200C
:1003F000A849087054204870172088701020C870D1
:100400004D20087105204871A84800788871A748D8
:100410000088000AC871A5480068000C0872A3484B
:100420000068000E4872A548807A8872062404E0AD
:100430009848005D0544601CC4B20B2CF8DB684290
:10044000C6B29448C6725A2092490873FE20487377
:100450000E2092490870FFF71CFF964800789649D5
:10046000087070BD9749002004E0974A125C0A604A
:10047000421CD0B22928F8DB0122944B1A60704745
:10048000EB20914908709020487023208870FE204E
:1004900081F828007047F0B5002400250026874F1A
:1004A0007B7B3A7BF97AB87AFFF7E7FE884880EDE4
:1004B000000A7B7C3A7CF97BB87BFFF7DEFE85483F
:1004C00080ED000A84480078401C83490870084683
:1004D0000078012803D181480088814908607E485E
:1004E0000078022803D17D4800887E4908607A4858
:1004F0000078052802DD052077490870FFF7C0FF66
:100500006E48807A7049C8766C48C07A08776B4824
:10051000007B48776948407B88776848807BC8774C
:100520006648C07B81F820006448007C81F8210087
:100530006248407C81F822005E480078362803D16A
:10054000022081F8230003E006205F4981F82300A0
:1005500065480088401C644908800846008800F40B
:100560007F4062490880084600880012564981F899
:1005700024005D48007881F8250000205C4908804F
:10058000022408E05048005D594909880844584948
:100590000880601CC4B2262CF4DB5548008800F4A7
:1005A0007F4054490880084600880012464981F877
:1005B00026004F48007881F82700FFF753FF3D4899
:1005C00000783D490870F0BD70B500240026002574
:1005D0005A20304908705420487017208870102025
:1005E000C870E2200871072048713048007888718F
:1005F0002E480088000AC8712C480068000C087258
:100600002A480068000E48722948007888723A200B
:10061000C872AA200873062404E01E48005D054441
:10062000601CC4B20D2CF8DB6842C6B21948467390
:100630005A2018498873FE20C87310201749087083
:10064000FFF727FE70BD70B50024002600255A2054
:100650001049087054204870172088701020C87006
:100660004B200871052048711048007888710F48A8
:100670000088000AC8710D480068000C08720B4819
:100680000068000E4872AA208872062439E0000033
:10069000B50000202C15002000400064B7000020A9
:1006A00000480064C100002028010020E400002070
:1006B000C6000020C2000020C300002090150020CA
:1006C000E000002000300064501600200038006474
:1006D000280000202C0000201E01002048110020CE
:1006E0002001002024010020F8000020FA00002052
:1006F000FC000020FE000020F848005D0544601C5E
:10070000C4B20B2CF8DB6842C6B2F448C6725A2059
:10071000F2490873FE2048730E20F1490870FFF774
:10072000B8FDF0480078F049087070BD70B500243D
:10073000002600255A20E9490870542048701720E7
:1007400088701020C870E220087107204871E748BF
:1007500000788871E5480088000AC871E34800689D
:10076000000C0872E1480068000E4872E04800780A
:1007700088723920C872AA200873062404E0D7487A
:10078000005D0544601CC4B20D2CF8DB6842C6B2A3
:10079000D24846735A20D1498873FE20C87310206E
:1007A000CF490870FFF775FD70BD70B500240026B5
:1007B0000025D048C07AD0490870CE48007BCF4988
:1007C0000870CC48407BCE490870CA48807BCD4930
:1007D0000870C848C07BCC490870C648007CCB492B
:1007E0000870C448407CCA4908705A20BB49087048
:1007F00054204870172088701020C8704A20087153
:1008000005204871B94800788871B8480088000A06
:10081000C871B6480068000C0872B4480068000E41
:100820004872AA208872062404E0AC48005D0544A2
:10083000601CC4B20B2CF8DB6842C6B2A748C67273
:100840005A20A6490873FE2048730E20A449087058
:10085000FFF71FFDA3480078A349087070BD70B56D
:10086000002400250026FFF70BFE0520A94981F88A
:100870002300A9480088401CA74908800846008832
:1008800000F47F40A5490880084600880012A1496D
:1008900081F82400A048007881F825000020A049B4
:1008A0000880022408E09B48005D9D4909880844AF
:1008B0009B490880601CC4B2262CF4DB9848008851
:1008C00000F47F409749088008460088001291494B
:1008D00081F826009248007881F82700FFF7C2FDD2
:1008E000804800788049087070BD70B500240026EB
:1008F00000255A20794908705420487017208870C4
:100900001020C870E2200871032048717948C07A2D
:10091000887175480078C871AA200872062404E01E
:100920006E48005D0544601CC4B2092CF8DB6842C7
:10093000C6B26A4846725A2068498872FE20C87258
:100940000C2067490870FFF7A4FC70BD70B5002447
:1009500000250026FFF794FD00206E4981F8230052
:100960006D480088401C6C4908800846008800F4E7
:100970007F406A490880084600880012654981F86E
:1009800024006548007881F825000020644908802B
:10099000022408E05F48005D614909880844604915
:1009A0000880601CC4B2262CF4DB5D48008800F48B
:1009B0007F405C490880084600880012554981F84C
:1009C00026005748007881F82700FFF74BFD45487F
:1009D00000784549087070BD70B5002400260025D8
:1009E0005A203E4908705420487017208870102003
:1009F000C870E2200871072048713C48007888716F
:100A00003A480088000AC87138480068000C08722B
:100A100036480068000E48723548007888723520E4
:100A2000C872AA200873062404E02C48005D05441F
:100A3000601CC4B20D2CF8DB6842C6B2274846736E
:100A40005A2026498873FE20C87310202449087054
:100A5000FFF71FFC70BD70B5002400250026FFF7CE
:100A60000FFD05202B4981F823002B480088401CEE
:100A7000294908800846008800F47F4027490880FB
:100A8000084600880012234981F824002248007893
:100A900081F82500022408E01E48005D20490988ED
:100AA00008441F490880601CC4B2262CF4DB1C4893
:100AB000008800F47F401B49088008460088001227
:100AC000144981F826001648007881F82700FFF7BE
:100AD000C9FC044800780449087070BD2C1500203A
:100AE000B7000020C2000020C3000020E400002066
:100AF000C600002090150020D7000020D100002063
:100B0000D2000020D3000020D4000020D500002017
:100B1000D600002050160020F8000020FA00002027
:100B2000FC000020FE00002070B5002400260025F7
:100B30005A20FD49087054204870172088701020F2
:100B4000C870E220087107204871F8480078887161
:100B5000F6480088000AC871F4480068000C087262
:100B6000F2480068000E4872F1480078887236201A
:100B7000C872AA200873062404E0EB48005D05440F
:100B8000601CC4B20D2CF8DB6842C6B2E64846735E
:100B90005A20E5498873FE20C8731020E549087083
:100BA000FFF777FB70BD70B5002400250026FFF726
:100BB00067FC0220E04981F82300E0480088401CDF
:100BC000DE4908800846008800F47F40DC49088040
:100BD000084600880012D84981F82400D7480078D8
:100BE00081F825000020D7490880022408E0D24877
:100BF000005DD44909880844D2490880601CC4B209
:100C0000262CF4DBCF48008800F47F40CE490880D2
:100C1000084600880012C84981F82600C9480078B3
:100C200081F82700FFF71EFCC8480078C849087003
:100C300070BD70B50024002600255A20BA490870FE
:100C400054204870172088701020C870E220087166
:100C500007204871B54800788871B4480088000AB8
:100C6000C871B2480068000C0872B0480068000EF5
:100C70004872AF48007888723520C872AA2008737D
:100C8000062404E0A848005D0544601CC4B20D2C95
:100C9000F8DB6842C6B2A44846735A20A24988735A
:100CA000FE20C8731020A3490870FFF7F2FA70BD48
:100CB00070B5002400250026FFF7E2FB05209E49C1
:100CC00081F823009D480088401C9C490880084604
:100CD000008800F47F409A49088008460088001286
:100CE000954981F824009548007881F82500022470
:100CF00008E09148005D93490988084491490880BB
:100D0000601CC4B2262CF4DB8E48008800F47F40BF
:100D10008D490880084600880012874981F826001E
:100D20008848007881F82700FFF79CFB8748007807
:100D30008749087070BD70B50024002600255A2030
:100D40007949087054204870172088701020C870A6
:100D5000E220087107204871744800788871734850
:100D60000088000AC87171480068000C08726F485A
:100D70000068000E48726E48007888723420C8728D
:100D8000AA200873062404E06748005D0544601C3F
:100D9000C4B20D2CF8DB6842C6B2634846735A20D1
:100DA00061498873FE20C873102062490870FFF7FC
:100DB00070FA70BDF0B50024002500266548807AE1
:100DC00065490870634FBB7B7A7B397BF87AFFF704
:100DD00054FA624880ED000ABB7C7A7C397CF87B4F
:100DE000FFF74BFA5E4880ED000ABB7D7A7D397DC6
:100DF000F87CFFF742FA5B4880ED000ABB7E7A7E02
:100E0000397EF87DFFF739FA574880ED000A5348DC
:100E100090ED000A554880ED000A514890ED000A17
:100E2000534880ED000A4C48007801283FD10E203D
:100E300050490870FFF724FB05203F4981F8230043
:100E40003E480088401C3D4908800846008800F460
:100E50007F403B490880084600880012364981F8E7
:100E600024003648007881F82500002035490880A4
:100E7000022408E03048005D3249098808443149BD
:100E80000880601CC4B2262CF4DB2E48008800F4D5
:100E90007F402D490880084600880012264981F8C5
:100EA00026002848007881F82700FFF7DBFA2A4857
:100EB000007802287DD1FFF7E3FA2648C07C1E495E
:100EC000C8742448007D08752248407D4875214833
:100ED000807D88751F48C07DC8751E48007E0876D5
:100EE0001C48407E48761B48807E8876012081F829
:100EF000230012480088401C1049088008460088DA
:100F000000F47F400E4908800846008800120A4914
:100F100081F824000948007881F82500002009495B
:100F20000880022431E044E02C150020E400002079
:100F3000C6000020B700002050160020F800002056
:100F4000FA000020FC000020FE000020C20000206B
:100F5000C3000020901500209D00002018000020F4
:100F60001C0000202000002024000020F41000209D
:100F7000F8100020E00D0020FE48005DFE490988C1
:100F80000844FD490880601CC4B2262CF4DBFA48F2
:100F9000008800F47F40F949088008460088001264
:100FA000F44981F82600F448007881F82700FFF71B
:100FB00059FAF3480078032857D10E20F1490870F8
:100FC000FFF75EFAF048C07CEA49C874EE48007D3D
:100FD0000875ED48407D4875EB48807D8875EA4886
:100FE000C07DC875E848007E0876E748407E4876B0
:100FF000E548807E8876012081F82300E348008858
:10100000401CE24908800846008800F47F40E0491F
:101010000880084600880012D64981F82400DB4881
:10102000007881F825000020D3490880022408E0D8
:10103000D048005DD04909880844CF490880601C29
:10104000C4B2262CF4DBCC48008800F47F40CB49A6
:101050000880084600880012C64981F82600C64864
:10106000007881F82700FFF7FDF9C54800780428CB
:1010700057D10120C3490870FFF702FAC248C07C6B
:10108000BC49C872C048007D0873BF48407D4873A2
:10109000BD48807D8873BC48C07DC873BA48007E57
:1010A0000874B948407E4874B748807E887403202D
:1010B00081F82300B5480088401CB44908800846E0
:1010C000008800F47F40B24908800846008800127A
:1010D000A84981F82400AD48007881F82500002057
:1010E000A5490880022408E0A248005DA2490988B9
:1010F0000844A1490880601CC4B2262CF4DB9E4839
:10110000008800F47F409D4908800846008800124E
:10111000984981F826009848007881F82700FFF761
:10112000A1F99748007805284BD1112095490870FE
:10113000984890ED000A984880ED000A974890ED95
:10114000000A974880ED000AFFF79AF905208949BF
:1011500081F823008D480088401C8C49088008468F
:10116000008800F47F408A49088008460088001201
:10117000804981F824008548007881F82500002006
:101180007D490880022408E07A48005D7A49098890
:10119000084479490880601CC4B2262CF4DB7648E8
:1011A000008800F47F4075490880084600880012D6
:1011B000704981F826007048007881F82700FFF711
:1011C00051F97848007878490870F0BD70B500246E
:1011D000002600255A2075490870542048701720B1
:1011E00088701020C870432008710520487170482D
:1011F000007888716E480088000AC8716C480068E1
:10120000000C08726A480068000E4872AA208872B2
:10121000062404E06548005D0544601CC4B20B2C44
:10122000F8DB6842C6B26148C6725A205F4908734B
:10123000FE2048730E205F490870FFF72AF85948CE
:1012400000785949087070BD70B50024002600254B
:101250005A20564908705420487017208870102072
:10126000C870E620087107204871514800788871DD
:101270004F480088000AC8714D480068000C087289
:101280004B480068000E48721E208872AA20C8725F
:101290000873062404E04548005D0544601CC4B2A0
:1012A0000D2CF8DB6842C6B2404846735A203F49CD
:1012B0008873FE20C87310203E490870FEF7E9FFCE
:1012C00070BD70B50024002600255A2037490870EB
:1012D00054204870172088701020C870E6200871CC
:1012E0000720487132480078887131480088000A28
:1012F000C8712F480068000C08722D480068000E65
:1013000048721C208872AA20C8720873062404E060
:101310002648005D0544601CC4B20D2CF8DB684211
:10132000C6B2224846735A2020498873FE20C873EB
:10133000102020490870FEF7ACFF70BD70B5002486
:10134000002600255A20194908705420487017209B
:1013500088701020C870E620087107204871144872
:101360000078887112480088000AC8711048006827
:10137000000C21E050160020FC000020FE000020A0
:101380009D000020E00D002090150020F8000020B6
:10139000FA00002018000020380700201C00002060
:1013A00034070020C2000020C30000202C150020BC
:1013B000E4000020B70000200872FE480068000E1C
:1013C00048721A208872AA20C8720873062404E0A2
:1013D000F948005D0544601CC4B20D2CF8DB68427E
:1013E000C6B2F54846735A20F3498873FE20C87385
:1013F0001020F2490870FEF74CFF70BD70B5002454
:10140000002600255A20EC49087054204870172007
:1014100088701020C870E620087107204871E548E0
:1014200000788871E3480088000AC871E1480068C4
:10143000000C0872DF480068000E4872192088729C
:10144000AA20C8720873062404E0DB48005D054446
:10145000601CC4B20D2CF8DB6842C6B2D648467395
:101460005A20D5498873FE20C8731020D3490870CC
:10147000FEF70FFF70BD70B50024002600255A202E
:10148000CD49087054204870172088701020C8700B
:10149000E620087107204871C64800788871C54861
:1014A0000088000AC871C3480068000C0872C1486F
:1014B0000068000E487218208872AA20C87208734B
:1014C000062404E0BC48005D0544601CC4B20D2C39
:1014D000F8DB6842C6B2B84846735A20B6498873EA
:1014E000FE20C8731020B5490870FEF7D2FE70BD0B
:1014F00070B50024002600255A20AF4908705420FA
:101500004870172088701020C870E62008710720E6
:101510004871A84800788871A6480088000AC871F8
:10152000A4480068000C0872A2480068000E4872C7
:1015300017208872AA20C8720873062404E09E4807
:10154000005D0544601CC4B20D2CF8DB6842C6B2D5
:10155000994846735A2098498873FE20C873102012
:1015600096490870FEF795FE70BD70B50024002600
:1015700000255A2090490870542048701720887020
:101580001020C870E620087107204871894800784B
:10159000887188480088000AC87186480068000C75
:1015A000087284480068000E487216208872AA20CB
:1015B000C8720873062404E07F48005D0544601C7F
:1015C000C4B20D2CF8DB6842C6B27B4846735A2081
:1015D00079498873FE20C873102078490870FEF797
:1015E00058FE70BD10B50024FEF74AFF052074496F
:1015F00081F8230073480088401C7249088008461F
:10160000008800F47F407049088008460088001276
:101610006B4981F824006B48007881F82500002090
:101620006A490880022408E06548005D6749098826
:10163000084466490880601CC4B2262CF4DB634869
:10164000008800F47F406249088008460088001244
:101650005B4981F826005D48007881F82700FEF795
:1016600001FF5C4800785C49087010BD70B500242B
:10167000002600255A205049087054204870172031
:1016800088701020C870E12008710720487149480F
:101690000078887147480088000AC871454800688A
:1016A000000C087243480068000E48724B480078EE
:1016B00088723120C872AA200873062404E03E48CC
:1016C000005D0544601CC4B20D2CF8DB6842C6B254
:1016D000394846735A2038498873FE20C873102051
:1016E00036490870FEF7D5FD70BDF0B52DED048BC1
:1016F00081B0002400260025394F7B7B3A7BF97AA4
:10170000B87AFEF7BAFD374880ED000A7B7C3A7C58
:10171000F97BB87BFEF7B1FD334880ED000A7B7D95
:101720003A7DF97CB87CFEF7A8FD304880ED000AD0
:101730007B7E3A7EF97DB87DFEF79FFD2C4880EDDB
:10174000000A7B7F3A7FF97EB87EFEF796FD294836
:1017500080ED000A97F8213097F82020F97FB87FB4
:10176000FEF78BFD244880ED000A97F8253097F8A6
:10177000242097F8231097F82200FEF77EFD1F48DB
:1017800080ED000A97F8293097F8282097F827105D
:1017900097F82600FEF771FD194880ED000A3846DB
:1017A00090F82A1090F82B0001EB002015490880D2
:1017B000384629E0E40000202C150020B700002066
:1017C00050160020F8000020FA000020FC00002045
:1017D000FE000020C2000020C3000020C600002040
:1017E00090150020180000201C0000202000002080
:1017F00024000020300000203400002038000020A9
:101800003C0000209E00002090F82C1090F82D0045
:1018100001EB0020FB490880384690F82E1090F824
:101820002F0001EB0020F8490880384690F830007E
:101830008DF80000384690F831008DF801003846E8
:1018400090F832008DF80200384690F833008DF899
:101850000300EE4900980860384690F8340040B222
:10186000EB490870384690F83500EA490880384658
:1018700090F8360040B2E8490870384690F83700D2
:10188000E64908803846807AE54908703846C07ACB
:1018900048703846007B88703846407BC8703846B0
:1018A000807B08713846C07B48713846007C88715F
:1018B0003846407CC8713846807E08723846C07E03
:1018C00048723846007F88723846407FC872384672
:1018D000807F08733846C07F4873384690F82000F0
:1018E0008873384690F82100C873384690F82A006B
:1018F0000874384690F82B004874384690F82C004D
:101900008874384690F82D00C874384690F82E0038
:101910000875384690F82F004875384690F8300022
:101920008875384690F83100C875384690F832000E
:101930000876384690F833004876384690F83400F8
:101940008876384690F83500C876384690F83600E4
:101950000877384690F8370048773846807C887793
:101960003846C07CC8773846007D81F8200038466C
:10197000407D81F821003846807D81F8220038467C
:10198000C07D81F823003846007E81F82400384667
:10199000407E81F82500A3480088A3490860994843
:1019A000008800EE100AB8EE400A10EE100A18F097
:1019B000FFFA41EC190B9FED9D0B53EC102B18F027
:1019C00001F841EC180B17F0EDFC9A4908608E48BD
:1019D000008800EE100AB8EE400A10EE100A18F067
:1019E000E7FA41EC190B9FED910B53EC102B17F01C
:1019F000E9FF41EC180B17F0D5FC8F4908608F48C0
:101A000090ED000A8E4880ED000AFEF739FD384659
:101A1000807C8C49C8703846C07C08713846007D8F
:101A200048713846407D88713846807DC871384697
:101A3000C07D08723846007E48723846407E887203
:101A4000384690F82200C872384690F82300087390
:101A5000384690F824004873384690F8250088737B
:101A6000384690F82600C873384690F82700087466
:101A7000384690F828004874384690F82900887451
:101A8000042081F8230070480088401C6E490880BB
:101A90000846008800F47F406C49088008460088AA
:101AA0000012684981F824006748007881F8250011
:101AB000002067490880022408E06248005D64490C
:101AC0000988084462490880601CC4B2262CF4DBF3
:101AD0005F48008800F47F405E490880084600881F
:101AE0000012584981F826005948007881F82700EB
:101AF000FEF7B8FC5A205849087054204870172047
:101B000088701020C8704120087105204871534822
:101B10000078887151480088000AC8714F480068F1
:101B2000000C08724D480068000E48720020887250
:101B3000062404E04848005D0544601CC4B20B2C38
:101B4000F8DB6842C6B24448C6725A20424908735C
:101B5000FE2048730E2042490870FEF79AFB2622A9
:101B60002F4940480CF097FC3F4800783F490870E7
:101B700001B0BDEC048BF0BD70B50024002500263B
:101B8000FEF77EFC05202F4981F823002E480088AF
:101B9000401C2D4908800846008800F47F402B49EE
:101BA0000880084600880012264981F8240026484B
:101BB000007881F82500002025490880022408E0EB
:101BC0002048005D22490988084421490880601C9A
:101BD000C4B2262CF4DB1E48008800F47F401D4967
:101BE0000880084600880012164981F82600184827
:101BF000007881F82700FEF735FC1B4800781B4968
:101C0000087070BDA0000020A2000020A4000020E9
:101C1000A8000020AA000020A9000020AC0000209D
:101C2000A21600209E000020500F0020FCA9F1D237
:101C30004D62503F5C0F0020580F00203000002004
:101C4000F802002050160020F8000020FA000020C2
:101C5000FC000020FE0000202C150020E4000020E5
:101C6000B700002000000C08C2000020C3000020C4
:101C70002DE9F0412DED048BFE480068401CFD4924
:101C80000860002400250026FB48007830380F2823
:101C90007ED2DFE800F0080D1A1FFCFBFAF9F8F716
:101CA000F6F5F4F3F200FFF767FF0FF05EFD64E373
:101CB000F2480078032805D1FFF717FD0120F0490D
:101CC000086001E0FFF7D2FC57E3FFF78BFC0FF051
:101CD00085FE52E3EB48007839287DD1EA48807AC6
:101CE000E6490870E94800780978884203D1012064
:101CF000E749087002E00020E5490870E4480078F0
:101D000018BB0020E3490870E3490870E3490870F4
:101D1000E34908709FEDE30AE34880ED000A0120E3
:101D2000E24908709FEDDF0AE14880ED000A0120DA
:101D3000E04908600020E0490860E0490860E049A7
:101D40000870E0490870E0490870CC480078CF4935
:101D50000870CD4FBB7B7A7B397BF87AFEF78DFA22
:101D6000DA4880ED000ABB7C7A7C397CF87BFEF790
:101D700084FAD74880ED000A3846C07CD5490870FF
:101D800008460078D4490860D2480078D34900E07A
:101D9000F0E20860CF480078D14908603846007DFD
:101DA000D049087008460078CF4908703846407D11
:101DB00040B2CE4908703846807D40B2CC490870A8
:101DC0003846C07D40B2CB4908703846007E40B2EC
:101DD000C9490870384600E018E2417E807E01EB78
:101DE000002000B2C54908800846B0F9000000EEA6
:101DF000100AB8EEC00ADFEDC20A80EE201AC14810
:101E000080ED001A3846C17E007F01EB002000B251
:101E1000BD4908800846B0F9000000EE100AB8EE8F
:101E2000C00ADFEDB70A80EE201AB84880ED001A2C
:101E30003846407FB64908703846807FB5490870FB
:101E40000846007818B18D480078012807D0B148BD
:101E50000078002869D089480078052865D1A34812
:101E600090F9000010F13C0F04DBA04890F900004D
:101E70003C280DDDFFF779FB7FE278E274E269E24E
:101E80005EE253E247E228E210E2F8E1D1E1C0E18C
:101E9000974890F9000010F13C0F04DB944890F94A
:101EA00000003C2802DDFFF723FB66E28F4890F933
:101EB000000000EE100AB8EEC00A974880ED000A54
:101EC0008B4890F9000000EE100AB8EEC00A934863
:101ED00080ED000A854890F9000000EE100AB8EE87
:101EE000C00A8F4880ED000A814890F9000000EE9A
:101EF000100AB8EEC00A8B4880ED000A7B4890F9C2
:101F0000000000EE100AB8EEC00A874880ED000A13
:101F1000774890F9000000EE100AB8EEC00A834836
:101F200080ED000A0120824908707A48007818B1D3
:101F300052480078012807D076480078002872D0EF
:101F40004E48007805286ED16A4890F900000028B4
:101F500004DB684890F900003C2802DDFFF78BFAAB
:101F60000BE2654890F90000002804DB624890F914
:101F700000003C2802DDFFF741FAFEE15D4890F9E0
:101F8000000000EE100AB8EEC00A6A4880ED000AB0
:101F9000006818F00DF841EC190B9FED670B53EC3E
:101FA000102B17F00FFD41EC180B17F0FBF96149EE
:101FB0000860504890F9000000EE100AB8EEC00A20
:101FC0005F4880ED000A4B4991F9000000EBD071A9
:101FD0004910A0EB410121B9464890F90000594948
:101FE0000860444991F9000000EBD0714910A0EB62
:101FF0004101012905D13F4890F90000401C514999
:1020000008605048006817F076FC41EC190B9FED12
:102010004A0B53EC102B17F0D5FC41EC180B17F0C2
:102020003BFC484908603B48007818B113480078E9
:10203000012806D037480078D0B11048007805282C
:1020400016D13048006817F0B3FF41EC180B9FED34
:102050003E0B53EC102B17F079FC7AD3294890ED06
:10206000000AF2EE040AB4EEE00AF1EE10FA6FE0B4
:102070009EE06EE014010020C2000020C600002097
:1020800004010020C300002090150020D80000208B
:10209000D9000020F0030020F5030020F603002003
:1020A000C8030020000000008C030020C4030020AF
:1020B000BC030020AC03002090030020FC030020A0
:1020C000D4030020E0030020E10300207C00002076
:1020D00080000020840000208C090020A003002044
:1020E000FC11002085000020850F002088000020C2
:1020F0008900002086000020870000208A00002040
:1021000000007A44900000208C0000209400002001
:102110009800002008010020CC030020D0030020FC
:10212000C8090020D0090020481200204C120020CD
:10213000E203002080090020000000000000E03FD2
:1021400008120020940300209A9999999999B93F0F
:1021500002DDFFF7F3F810E1F948006817F028FFF7
:1021600041EC180B1FED080B53EC102B17F0EEFB96
:1021700009D3F34890ED000AF2EE040AB4EEE00A47
:10218000F1EE10FA02DDFFF79CF8F6E0ED4890ED75
:10219000000AED4880ED000AEA4890ED000AEB489D
:1021A00080ED000AE64890ED000AE94880ED000A5B
:1021B000E8480078032826D1E7480078012822D192
:1021C000E64800780A2803DBE44800783C2802DD72
:1021D000FFF73AF8D1E0E148007817F0A3FB41ECB3
:1021E000190B9FEDDF0B53EC102B17F0EBFB41ECC1
:1021F000180B17F0D7F8DC490860084690ED000A84
:10220000DA4880ED000AFEF7E1FF01E0FEF76DFB22
:10221000B3E0D1480078032803D0CF4800780428E1
:1022200004D1FEF7C7FD0FF0E3FC01E0FEF783FDEC
:10223000A3E0C9480078012807D0C74800780328E0
:1022400003D0C5480078052816D1C2480078012877
:1022500006D1FEF72DFD0FF052FD0B20C44908708A
:10226000BC480078022809D1FEF722FD0FF047FD97
:102270000D20BF49087001E0FEF7DBFC7DE0B648A9
:102280000078022803D0B448007803280BD1FEF769
:102290008AFC0FF0B6FDB7480078012805D1072069
:1022A000B349087001E0FEF73FFC66E0AA480078F9
:1022B000012807D0A8480078032803D0A648007852
:1022C000052807D10C20AA490870FEF7C4FB0FF0BF
:1022D0001AFE01E0FEF780FB4FE0A748007839289E
:1022E00016D10020A5490870A54890ED000AA54820
:1022F00080ED000AA44890ED000AA44880ED000A91
:1023000003209B490870FEF721FB0FF099FE34E093
:10231000FEF7EBFA31E0012095490870FEF79FFACD
:102320000FF010FF00209A49087026E08A480078D4
:10233000032802D1FEF739FA01E0FEF7F7F91CE0B5
:1023400085480078032802D1FEF77DF901E0FEF709
:102350003BF912E08F480068401C8E490860FEF788
:102360009AF80FF011F808E0FEF735F805E0FDF7F0
:10237000F4FF02E0FDF7B1FF00BF00BFBDEC048B2E
:10238000BDE8F08170B500240026834800785A2803
:1023900001D1012000E000207F494978542901D172
:1023A000012100E00021084000287DD07B48007812
:1023B000801E7949085C5A2801D1012000E00020E4
:1023C00076490978491E744A515CFE2901D10121E0
:1023D00000E000210840002867D0062404E06E4891
:1023E000005D0644601CC4B26C480078C01EA04268
:1023F000F5DCF5B26842C5B268480078C01E66498F
:10240000085CA84270D108468078102801D10120CC
:1024100000E000206049C978172901D1012100E0BE
:102420000021084000B35C4800795D4908705A48B3
:1024300080785C4908705848C0785B4908705648F5
:102440008179C07901EB00215348007A01EB00410A
:102450005148407A01EB006054490860002054491B
:102460000870FFF705FC35E15A20524908705420E6
:102470004870172088701020C870E4200871072069
:1024800048714D48007888714B480088000AC8712F
:1024900049480068000C087247480068000E4872FE
:1024A000172088723F4801E0E2E09FE00078C872A0
:1024B0003D4800780873062404E03E48005D064469
:1024C000601CC4B20D2CF8DB7042C5B268423949B9
:1024D00048735A208873FE20C8731020374908704B
:1024E000FDF7D7FEF6E0FFE70120314908705A20DA
:1024F0003049087054204870172088701020C87028
:10250000E0200871072048712B48007888712A481C
:102510000088000AC87128480068000C0872264824
:102520000068000E48721D480078C01E1A49085CF9
:10253000204988720846C572AA200873062444E020
:102540009400002090000020840900209C030020BB
:102550009803002008010020C600002098000020F9
:10256000FCA9F1D24D62503F180100202C1200202E
:10257000E00D00201D010020C3000020FE100020FF
:10258000700C0020E80000205C0C0020EC00002013
:10259000E71000200C01002090150020B80000205A
:1025A000C2000020C4000020C5000020E000002080
:1025B000C00000202C150020E4000020B7000020FF
:1025C000FE48005D0644601CC4B2092CF8DB704272
:1025D000C5B26842F94948735A208873FE20C8730F
:1025E0001020F7490870FDF754FE73E00220F5490A
:1025F00008705A20F14908705420487017208870DC
:102600001020C870E520087107204871EE48007856
:102610008871ED480088000AC871EB480068000C1A
:102620000872E9480068000E4872E8480078C01E49
:10263000E749085CE14988720846C572AA20087318
:10264000062404E0DD48005D0644601CC4B20D2C85
:10265000F8DB7042C5B2D94845735A20D749887310
:10266000FE20C8731020D6490870FDF712FE31E035
:102670000320D44908705A20D0490870542048706B
:10268000172088701020C870E0200871032048715E
:10269000CE480078C01ECE49085CC84988710846FB
:1026A000C571AA200872062404E0C448005D0644EF
:1026B000601CC4B20D2CF8DB7042C5B2BF48457235
:1026C0005A20BE498872FE20C8720C20BC4908708E
:1026D000FDF7DFFD70BD10B5BE48BF4908600020A2
:1026E000BB494871BD4908701CE0BB4800680078D0
:1026F000B749BA4A12788854B7480068801CB6496E
:102700000860B34840790930B0490870B348007890
:10271000401CB249087008460078AC4909788842E4
:1027200000D100E0E1E700BFAD480068401CAC49C3
:102730000860FFF727FE10BD10B5FDF7AAFD10BD1C
:1027400070B50024002600255A209C4908705420AA
:102750004870172088701020C870E2200871072088
:10276000487199480078887197480088000AC871B4
:1027700095480068000C087293480068000E487283
:102780009848007888723720C872AA2008730624F7
:1027900004E08A48005D0544601CC4B20D2CF8DBDF
:1027A0006842C6B2854846735A2084498873FE2021
:1027B000C873102082490870FDF76BFD70BD70B5BD
:1027C0000024002600255A207C49087054204870B7
:1027D000172088701020C870E22008710720487107
:1027E00079480078887178480088000AC87176486E
:1027F0000068000C087274480068000E487279483E
:10280000007888723B20C872AA200873062404E06E
:102810006A48005D0544601CC4B20D2CF8DB6842B8
:10282000C6B2664846735A2064498873FE20C8734E
:10283000102063490870FDF72CFD70BD70B50024B1
:10284000002600255A205D49087054204870172042
:1028500088701020C870E1200871072048715A481C
:102860000078887158480088000AC8715648006886
:10287000000C087254480068000E487259480078ED
:102880008872AA20C8720873062404E04B48005DD1
:102890000544601CC4B20D2CF8DB6842C6B2474840
:1028A00046735A2045498873FE20C8731020444956
:1028B0000870FDF7EEFC70BD00214B49002005E0DB
:1028C0000A784A4B1A54891C421CD0B22E28F7DBD6
:1028D000704746480078EB2803D044484078902859
:1028E0003BD1424890F82D00FE2836D1022108E065
:1028F0003E4A525C3E4B1B881A443D4B1A804A1C90
:10290000D1B22B29F4DB394A92F82B201202394B31
:102910001A80364A92F82C201B881A44354B1A80AC
:10292000334A12881B889A4211D100200DE02F4AA9
:10293000125C314B1A540122304B1A6000222C4B8E
:102940001A802C4B1A80421CD0B22E28EFDB0022BA
:10295000284B1A80264B1A8000BF704710B5002004
:10296000274908700AE0274825490978405C26492C
:10297000086023480078401C2149087020480078EE
:10298000224909788842EEDB012008F0BBFB0120D8
:102990004FF0C841086010BD10B55B2019490870A0
:1029A0005420487008480078887007480088000A5A
:1029B000C87005480068000C087129E02C1500203B
:1029C000B7000020C0000020E4000020B800002074
:1029D0009015002000400064BC000020B5000020DD
:1029E00010010020C600002000300064F415002013
:1029F000F0000020F200002022160020F400002049
:102A000000000020C814002000B100640100002074
:102A1000FE480068000E4871402088710020C8718F
:102A200002200872FA480078032802D10020487278
:102A300032E0F7480078042803D10120F5494872B4
:102A40002AE0F3480078012807D1F34800780328EA
:102A500003D10220EF4948721EE0ED4800780128BA
:102A600007D1ED480078022803D10320E9494872D4
:102A700012E0E7480078012807D1E74800780128EC
:102A800003D10420E349487206E0E14800780228B7
:102A900002D10520DF494872E04890ED000AE04885
:102AA00080ED000A0078DB498872DD484078C87202
:102AB000DB4880780873DA48C0784873D94890EDCD
:102AC000000AD74880ED000A00788873D44840781F
:102AD000C873D34880780874D148C0784874D24805
:102AE00090ED000ACE4880ED000A00788874CC484A
:102AF0004078C874CA4880780875C948C078487555
:102B0000CA4890ED000AC64880ED000A0078887532
:102B1000C3484078C875C24880780876C048C078F5
:102B20004876C34890ED000AC24880ED000A90ED57
:102B3000000ABB4880ED000A00788876B8484078E3
:102B4000C876B74880780877B548C0784877BA48DB
:102B500090ED000AB94880ED000A90ED000AB048F7
:102B600080ED000A00788877AD484078C877AC4897
:102B7000807881F82000AA48C07881F82100B04808
:102B800090ED000AAF4880ED000A90ED000AA448DD
:102B900080ED000A007881F82200A148407881F891
:102BA00023009F48807881F824009D48C07881F8F0
:102BB0002500A548C07B81F82600A348007C81F849
:102BC0002700A148407C81F828009F48807C81F83C
:102BD00029009D48C07C81F82A009B48007D81F82F
:102BE0002B009948407D81F82C009748807D81F822
:102BF0002D00964890ED000A894880ED000A007883
:102C000081F82E008648407881F82F00844880782B
:102C100081F830008248C07881F831008C4890ED0E
:102C2000000A7F4880ED000A007881F832007C4875
:102C3000407881F833007A48807881F83400784809
:102C4000C07881F8350083480078022855D181F892
:102C50003600814890ED000A714880ED000A007846
:102C600081F837006E48407881F838006C488078E9
:102C700081F839006A48C07881F83A00774890EDC9
:102C8000000A674880ED000A007881F83B0064483C
:102C9000407881F83C006248807881F83D006048C7
:102CA000C07881F83E006E4890ED000A5C4880EDE7
:102CB000000A007881F83F005948407881F84000C8
:102CC0005748807881F841005548C07881F8420023
:102CD000644890ED000A524880ED000A007881F8BF
:102CE00043004F48407881F844004D48807881F88F
:102CF00045004B48C07881F84600564800780328C4
:102D000056D1444981F83600574890ED000A4448AE
:102D100080ED000A007881F837004148407881F85A
:102D200038003F48807881F839003D48C07881F804
:102D30003A004E4890ED000A394880ED000A0078CC
:102D400081F83B003648407881F83C003448807870
:102D500081F83D003248C07881F83E00444890ED4B
:102D6000000A2F4880ED000A007881F83F002C48C7
:102D7000407881F840002A48807881F8410028484E
:102D8000C07881F842003B4890ED000A244880ED6D
:102D9000000A007881F843002148407881F8440017
:102DA0001F48807881F845001D48C07881F84600AA
:102DB0002848007801287DD1164981F836002E4830
:102DC00090ED000A164880ED000A007881F837007F
:102DD0001348407881F838001148807881F839002C
:102DE0000F48C07881F83A00244890ED000A0C485A
:102DF00080ED000A007881F83B000948407881F8AE
:102E00003C000748807881F83D0039E0E40000206C
:102E1000C6000020C814002008010020680300201C
:102E20000400002064030020700C00205C0C0020D3
:102E3000100D002048000020E80C00204000002079
:102E4000F80C002044000020F41500202800002089
:102E50002C0000201C010020D0020020D402002001
:102E6000D8020020DC020020BC020020F00200207A
:102E7000B0020020E40200209C020020A0020020FA
:102E8000FE48C07881F83E00FD4890ED000AFB48FE
:102E900080ED000A007881F83F00F848407881F81A
:102EA0004000F648807881F84100F448C07881F805
:102EB000420000E014E0F34890ED000AEF4880ED96
:102EC000000A007881F84300EC48407881F844001B
:102ED000EA48807881F84500E848C07881F84600E3
:102EE000E948007804284ED1E84981F83600E848DE
:102EF000007881F83700E6480088000A81F8380039
:102F0000E3480068000C81F83900E1480068000ED1
:102F100081F83A00DF48007881F83B00DD480088FE
:102F2000000A81F83C00DB480068000C81F83D0095
:102F3000D8480068000E81F83E00D748007881F834
:102F40003F00D5480088000A81F84000D248006858
:102F5000000C81F84100D0480068000E81F8420062
:102F6000CE48007881F84300CC480088000A81F8F8
:102F70004400CA480068000C81F84500C748006852
:102F8000000E81F84600C048007805284ED1BF49A0
:102F900081F83600C248007881F83700C0480088C0
:102FA000000A81F83800BE480068000C81F839003A
:102FB000BB480068000E81F83A00BA48007881F8F2
:102FC0003B00B8480088000A81F83C00B54800681A
:102FD000000C81F83D00B3480068000E81F83E0007
:102FE000B148007881F83F00AF480088000A81F8B6
:102FF0004000AD480068000C81F84100AA48006814
:10300000000E81F84200A948007881F84300A748E3
:103010000088000A81F84400A4480068000C81F888
:103020004500A2480068000E81F8460096480078E6
:10303000062839D1954981F836009D48007881F8F5
:1030400037009B480088000A81F8380098480068DB
:10305000000C81F8390096480068000E81F83A00AB
:103060009448007881F83B0092480088000A81F873
:103070003C0090480068000C81F83D008D480068D5
:10308000000E81F83E00AA2081F83F0081F8400040
:1030900081F8410081F8420081F8430081F8440042
:1030A00081F8450081F8460077480078062803D16A
:1030B00001207549087004E073480078401C72498B
:1030C0000870AA20714981F847005B2081F8480008
:1030D000FE2081F849004A2077490870FFF73EFC3E
:1030E00076480068401C7549086010BD10B57448EA
:1030F000007820B9FFF750FC6420714908707048CF
:103100000078401E40B26E49087010BD70B52DEDBC
:10311000068B002400266B480068401C6949086043
:1031200069480078992801D1012000E00020664913
:103130004978662901D1012100E0002108400028DA
:103140007ED0022404E06048005D0644601CC4B2E6
:103150002D2CF8DBF5B26842C5B25B4890F82D0023
:10316000A8426DD15848C178007901EB002156483A
:10317000407901EB00415448807901EB00605349EC
:1031800008605148C179007A01EB00214E48407A2D
:1031900001EB00414C48807A01EB00604C4908602B
:1031A0004948C17A007B01EB00214748407B01EB95
:1031B00000414548807B01EB006046490860424879
:1031C000C17B007C01EB00213F48407C01EB0041CA
:1031D0003D48807C01EB00603F4908603A48C17C73
:1031E000007D01EB002000B23C4908803648417D5B
:1031F000807D01EB002000B2394908803248C17D52
:10320000007E01EB002000B2364908802E48417E46
:10321000807E01EB002000B2334908802A48C17E3D
:10322000007F01EB002000B2304908802648417F32
:10323000807F01EB002000B22D490880224800E089
:103240000FE2C17F90F8200001EB002000B2294975
:1032500008801D4890F8211090F8220001EB002012
:1032600000B225490880184890F8231090F82400EF
:1032700001EB002000B22149088041E00400002059
:10328000A4020020A80200201C010020C814002075
:10329000B8020020EC020020C0020020F40200204E
:1032A00090020020C402002094020020C8020020E6
:1032B00098020020CC020020010000202C010020F8
:1032C00034010020B0010020C81600203C0100207D
:1032D00048010020500100204C0100207401002012
:1032E00078010020760100206401002060010020A8
:1032F000620100207A0100207C0100207E01002074
:10330000E94890F8251090F8260001EB002000B263
:10331000E6490880E44890F8271090F8280001EB6F
:10332000002000B2E2490880DF4890F8291090F8A8
:103330002A0001EB002000B2DE490880DA4890F84C
:103340002B1090F82C0001EB002000B2DA49088025
:10335000DA4890ED000AB8EEC00A10EE100A16F036
:1033600027FE41EC1A0B9FEDD60B53EC102B16F0F9
:1033700029FB41EC190B9FEDD40B53EC102B16F0ED
:10338000F7F841EC180B16F00DF8D1490860D14858
:1033900090ED000AB8EEC00A10EE100A16F008FE12
:1033A00041EC1A0B9FEDC60B53EC102B16F00AFBE9
:1033B00041EC190B9FEDC40B53EC102B16F0D8F811
:1033C00041EC180B15F0EEFFC3490860C34890EDBF
:1033D000000AB8EEC00A10EE100A16F0E9FD41EC42
:1033E0001A0B9FEDBF0B53EC102B16F0EBFA41ECD0
:1033F000190B9FEDB50B53EC102B16F0B9F841ECFF
:10340000180B15F0CFFFB8490860B848B0F90000B4
:1034100016F071FA41EC1A0B9FEDA90B53EC102B2F
:1034200016F0D0FA41EC190B9FEDB10B53EC102BB9
:1034300016F09EF841EC180B15F0B4FFAE49086089
:10344000AE48B0F9000016F056FA41EC1A0B9FEDA9
:103450009C0B53EC102B16F0B5FA41EC190B9FEDB9
:10346000A40B53EC102B16F083F841EC180B15F05D
:1034700099FFA3490860A348B0F9000016F03BFA91
:1034800041EC1A0B9FED8E0B53EC102B16F09AFAB1
:1034900041EC190B9FED960B53EC102B16F068F8CE
:1034A00041EC180B15F07EFF974908609749B1F978
:1034B0000010080216F01FFA41EC190B9FED8C0B5F
:1034C00053EC102B16F054F841EC180B15F06AFF72
:1034D0008F4908608F49B1F90010080216F00BFA05
:1034E00041EC190B9FED820B53EC102B16F040F8BA
:1034F00041EC180B15F056FF874908608749B1F970
:103500000010080216F0F7F941EC190B9FED780B4B
:1035100053EC102B16F02CF841EC180B15F042FF71
:103520007F4908607F4909884FF4967211FB02F0C9
:1035300016F0E1F99FED6E0B53EC102B16F018F816
:1035400015F030FF78490860784909884FF4967281
:1035500011FB02F016F0CFF99FED650B53EC102B29
:1035600016F006F815F01EFF7149086071490988C8
:103570004FF4967211FB02F016F0BDF99FED5C0B53
:1035800053EC102B15F0F4FF15F00CFF6A4908609E
:1035900046490988642211FB02F016F0ACF99FED50
:1035A000540B53EC102B15F0E3FF15F0FBFE6349B1
:1035B00008603F490988642211FB02F016F09BF96C
:1035C0009FED4B0B53EC102B15F0D2FF15F0EAFEDC
:1035D0005B49086037490988642211FB02F016F044
:1035E0008AF99FED430B53EC102B15F0C1FF15F03A
:1035F000D9FE544908605448006854490860084698
:1036000000684FF47A71B0FBF1F201FB12005049EF
:1036100008804E4800684FF47A71B0FBF1F04B49D6
:103620000860084600686421B0FBF1F201FB12005B
:1036300048490880454800686421B0FBF1F04349DF
:103640000860084600686421B0FBF1F201FB12003B
:10365000414908803D4800686421B0FBF1F03F49D2
:103660000880BDEC068B70BD10B53D483D49086033
:1036700000203D49087010E03A48006800780A4987
:10368000394A1278885437480068801C35490860E8
:1036900035480078401C3449087033480078302899
:1036A000EADBFFF733FD10BDC816002080010020C3
:1036B0008201002084010020AC010020480100208C
:1036C0000000000000806640000080FFFFFFDF4137
:1036D000540100204C01002058010020500100201E
:1036E0000000000000FFCF405C01002060010020CE
:1036F00000000000C0FFDF406801002062010020E0
:103700006C01002064010020700100207401002081
:1037100088010020760100208C0100207801002023
:10372000900100207A010020940100207C010020FB
:10373000980100207E0100209C010020A0010020B3
:10374000A4010020A80100203C0100203801002035
:1037500046010020440100204201002040010020D9
:1037600000B10064BC000020000000202DED048B9F
:1037700014F002FDA02007F0B2FC4FF4A06011F09D
:1037800093FC07F02BFC4FF4E1300FF02AFB4FF4D1
:10379000E1300FF076FB4FF4E1300FF0C4FB4FF453
:1037A0007A7007F09CFC00F0E3F84FF47A7007F0B1
:1037B00096FC00F04FF905F01DF807F052F802F002
:1037C000F1F84FF4FA7007F08AFC4FF4FA7007F042
:1037D00086FC00F0E5FA00F0B9FA4FF4967007F0B5
:1037E0007EFC40F27F3001F0B5FD40F27F3001F009
:1037F000E0FF642007F073FC4A48006816F07BF88D
:1038000041EC190B9FED480B53EC102B15F0B0FE5B
:1038100041EC180B15F0C6FD45490860084690EDCF
:10382000000A444880ED000A434890ED000A4348EE
:1038300080ED000A90ED000A414880ED000A02F098
:1038400080F842F2CF0113200AF020FF00203D490A
:10385000087003203C49087013E03C4890ED000AD2
:10386000F7EE000AB4EE600AF1EE10FA09D1012178
:1038700040F27F3000F0DBFD012140F27F3000F0AC
:10388000A9FDEAE708B58DF800008DF801108DF864
:1038900002208DF803309DED000A08BD10B52C4CB8
:1038A000E378A27861782078FFF7ECFF294880ED73
:1038B000000AE379A27961792079FFF7E3FF2648CE
:1038C00080ED000AE37AA27A617A207AFFF7DAFFC4
:1038D000224880ED000A2046017C407C01EB00205C
:1038E0001F4908602046817CC07C01EB00201D49F7
:1038F00008602046807E00EE100AB8EE400A1548A7
:10390000D0ED000A30EE600ABDEEC00A164880ED28
:10391000000A2046C07E2146897E401A134908606D
:1039200010BD00000C020020CDCCCCCC6CC10641F7
:10393000880200207C0B0020E4020020840200208A
:10394000780B002060130020E00D00201003002001
:10395000FA160020DC0E0020E00E0020F802002005
:10396000500F00205C0F0020640F0020540F002037
:1039700000B58BB00121022013F0A2F90121480605
:1039800013F0D1F94FF44070099002208DF828000F
:1039900003208DF8290000208DF82A0001208DF8E1
:1039A0002B0009A9E64812F045FF09220821E44846
:1039B00012F0CBFF09221146E14812F0C6FF0020A9
:1039C0008DF81E008DF81F008DF820008DF8210065
:1039D0008DF822008DF823008DF81A008DF81B0059
:1039E00002208DF81C0001208DF81D000E20ADF87E
:1039F000180006A9D34811F0E0FB00208DF8120052
:103A00008DF8130001208DF814000020ADF8080097
:103A1000ADF80A00ADF80C00ADF80E00ADF81000DE
:103A200001208DF8150002A811F051FC012202219D
:103A3000C44811F04BFF14208DF8040001208DF8CC
:103A400005008DF806008DF8070001A811F031FB84
:103A50000BB000BD00B58BB00121022013F030F98E
:103A60000121880613F05FF96020099002208DF88B
:103A7000280003208DF8290000208DF82A0001205D
:103A80008DF82B0009A9AE4812F0D4FE09220521B9
:103A9000AB4812F05AFF09220621A94812F055FF3F
:103AA00000208DF81E008DF81F008DF820008DF885
:103AB00021008DF822008DF823008DF81A008DF872
:103AC0001B0002208DF81C0001208DF81D000E2027
:103AD000ADF8180006A99C4811F06FFB0E208DF878
:103AE000120000208DF8130001208DF81400002032
:103AF000ADF80800ADF80A00ADF80C00ADF80E0006
:103B0000ADF8100001208DF8150002A811F0DFFBC0
:103B1000012202218C4811F0D9FE40208DF80400CA
:103B200000208DF8050001208DF806008DF80700B3
:103B300001A811F0BEFA0BB000BD2DE9F0418AB02A
:103B400004460D4616461F46DDF84080012102203E
:103B500013F0B6F80121480613F0E5F84FF4407071
:103B6000089002208DF8240000208DF82600032004
:103B70008DF8250001208DF8270008A9704812F063
:103B800059FE092208216E4812F0DFFE0922114673
:103B90006B4812F0DAFE6B4811F0F6FA05A811F046
:103BA00017FC00208DF81A008DF81B008DF81C0002
:103BB0008DF81D008DF81E008DF81F008DF8168001
:103BC0008DF817408DF818608DF81950ADF8147005
:103BD00005A95C4811F0F1FA00208DF80E008DF86F
:103BE0000F0001208DF810000020ADF80400ADF8A2
:103BF0000600ADF80800ADF80A00ADF80C00012091
:103C00008DF81100012202214E4811F05FFE01A83B
:103C100011F05DFB0AB0BDE8F0812DE9F0418AB0FA
:103C200004460D4616461F46DDF84080012102205D
:103C300013F046F80121880613F075F8602008900B
:103C400002208DF8240000208DF8260003208DF836
:103C5000250001208DF8270008A9394812F0EAFD57
:103C600009220521364812F070FE09220621344847
:103C700012F06BFE344811F087FA05A811F0A8FB8A
:103C800000208DF81A008DF81B008DF81C008DF8AF
:103C90001D008DF81E008DF81F008DF816808DF820
:103CA00017408DF818608DF81950ADF8147005A9FB
:103CB000254811F082FA0E208DF80E0000208DF8B4
:103CC0000F0001208DF810000020ADF80400ADF8C1
:103CD0000600ADF80800ADF80A00ADF80C000120B0
:103CE0008DF8110001220221174811F0EFFD01A803
:103CF00011F0EDFA0AB0BDE8F08108B54FF4A0600C
:103D000011F0D2F914208DF8000000208DF8010088
:103D10008DF8020001208DF80300684611F0C9F902
:103D200040208DF8000000208DF8010001208DF862
:103D300002008DF80300684611F0BBF908BD0000D1
:103D400000040240006400400068004000B585B0F7
:103D5000002000908DF809008DF8080008208DF8EB
:103D60000A0001208DF80B0000218DF80C108DF851
:103D70000D108DF80E108DF80F108DF810108DF8B5
:103D800011108DF812106946FE4811F08FFB00BF2C
:103D90000021FC4811F022FC0128F9D105B000BD3A
:103DA00000B585B0002000908DF809008DF808005E
:103DB00008208DF80A0001208DF80B0000218DF8F5
:103DC0000C108DF80D108DF80E108DF80F108DF869
:103DD00010108DF811108DF812106946EA4811F094
:103DE00065FB00BF0021E84811F0F8FB0128F9D17C
:103DF00005B000BD30B585B004460D4600940020E6
:103E00008DF809008DF8080008208DF80A0055206B
:103E10008DF80B004D218DF80C1000218DF80D1040
:103E20008DF80E108DF80F508DF810108DF81110C0
:103E30008DF812106946D44811F038FB00BF0021FC
:103E4000D14811F0CBFB0128F9D105B030BD10B538
:103E500086B00446019400208DF80D008DF80C000A
:103E600004208DF80E0055208DF80F004D218DF89F
:103E7000101000218DF811108DF8121001A9C24800
:103E800011F014FB00BF0021BF4811F0A7FB01286F
:103E9000F9D106B010BD2DE9F04385B005460C46BA
:103EA000002C02DBB948046001E0B8490C60B74857
:103EB000007846B2B5480088000A47B2B3480068A7
:103EC000000C4FFA80F8B1480068000E4FFA80F9F4
:103ED000009500208DF809008DF8080008208DF865
:103EE0000A004A208DF80B0056218DF80C10002195
:103EF0008DF80D108DF80E10F1B28DF80F10F9B28B
:103F00008DF8101008F0FF018DF8111009F0FF0175
:103F10008DF8121069469B4811F0C8FA00BF0021C5
:103F2000984811F05BFB0128F9D105B0BDE8F0839A
:103F300010B586B00446019400208DF80D008DF870
:103F40000C0004208DF80E0050208DF80F00412148
:103F50008DF8101000218DF8111040218DF81210ED
:103F600001A9884811F0A2FA00BF0021854811F08C
:103F700035FB0128F9D106B010BD2DE9F04385B01D
:103F800005460C46002C02DB8148046001E08049B4
:103F90000C607F48007846B27D480088000A47B22E
:103FA0007B480068000C4FFA80F879480068000EE2
:103FB0004FFA80F9009500208DF809008DF808006F
:103FC00008208DF80A0050208DF80B0041218DF853
:103FD0000C1000218DF80D108DF80E10F1B28DF837
:103FE0000F10F9B28DF8101008F0FF018DF81110C4
:103FF00009F0FF018DF812106946624811F056FA77
:1040000000BF00215F4811F0E9FA0128F9D105B09D
:10401000BDE8F0832DE9F04385B005460C46002C41
:1040200002DB5C48046001E05A490C6059480078A2
:1040300046B258480088000A47B256480068000C4B
:104040004FFA80F853480068000E4FFA80F9009547
:1040500000208DF809008DF8080008208DF80A006E
:1040600050208DF80B0041218DF80C1000218DF8A7
:104070000D108DF80E10F1B28DF80F10F9B28DF809
:10408000101008F0FF018DF8111009F0FF018DF8F4
:10409000121069463C4811F009FA00BF00213A4865
:1040A00011F09CFA0128F9D105B0BDE8F0832DE9A3
:1040B000F04385B005460C46002C02DB3448046012
:1040C00001E033490C603248007846B2304800883D
:1040D000000A47B22E480068000C4FFA80F82C48BE
:1040E0000068000E4FFA80F9009500208DF8090055
:1040F0008DF8080008208DF80A0050208DF80B007C
:1041000052218DF80C1000218DF80D108DF80E1035
:10411000F1B28DF80F10F9B28DF8101008F0FF0110
:104120008DF8111009F0FF018DF81210694615483D
:1041300011F0BCF900BF0021124811F04FFA01281C
:10414000F9D105B0BDE8F0832DE9F04385B005460F
:104150000C46002C02DB0F48046001E00D490C60A6
:104160000C48007846B20B480088000A47B209485C
:104170000068000C4FFA80F806480068000E4FFAFD
:1041800080F909E00068004000640040C0010020A0
:10419000BC010020D8010020009500208DF8090006
:1041A0008DF8080008208DF80A0050208DF80B00CB
:1041B00052218DF80C1000218DF80D108DF80E1085
:1041C000F1B28DF80F10F9B28DF8101008F0FF0160
:1041D0008DF8111009F0FF018DF812106946FE48A4
:1041E00011F064F900BF0021FB4811F0F7F9012834
:1041F000F9D105B0BDE8F0832DE9F04385B08146E3
:104200000C46002C02DDF548046001E0F3490C6027
:1042100024B9002500260027A8460FE0EF480078C3
:1042200045B2EE480088000A46B2EC480068000C2F
:1042300047B2EA480068000E4FFA80F8CDF80090C7
:1042400000208DF809008DF8080008208DF80A007C
:1042500050208DF80B0058218DF80C1000218DF89E
:104260000D108DF80E10E9B28DF80F10F1B28DF827
:104270001010F9B28DF8111008F0FF018DF812102E
:104280006946D74811F012F900BF0021D44811F057
:10429000A5F90128F9D105B0BDE8F0832DE9F04377
:1042A00085B081460C46002C02DDCE48046001E05A
:1042B000CC490C6024B9002500260027A8460FE051
:1042C000C848007845B2C7480088000A46B2C548C9
:1042D0000068000C47B2C3480068000E4FFA80F82F
:1042E000CDF8009000208DF809008DF80800082016
:1042F0008DF80A0050208DF80B0058218DF80C1015
:1043000000218DF80D108DF80E10E9B28DF80F1008
:10431000F1B28DF81010F9B28DF8111008F0FF010C
:104320008DF812106946AC4811F0C0F800BF0021AA
:10433000A94811F053F90128F9D105B0BDE8F0837F
:1043400010B586B00446019400208DF80D008DF85C
:104350000C0004208DF80E0050208DF80F00412134
:104360008DF8101000218DF8111040218DF81210D9
:1043700001A99B4811F09AF800BF0021984811F05C
:104380002DF90128F9D106B010BD00B585B040F275
:104390007F30009000208DF809008DF8080004207F
:1043A0008DF80A004D208DF80B004F218DF80C1070
:1043B00000218DF80D108DF80E106946864811F019
:1043C00075F800BF0021844811F008F90128F9D1DF
:1043D00005B000BD30B585B004460D460094002000
:1043E0008DF809008DF8080008208DF80A004D208E
:1043F0008DF80B004F218DF80C1000218DF80D1059
:104400008DF80E108DF80F508DF810108DF81110DA
:104410008DF812106946724811F048F800BF00216B
:104420006F4811F0DBF80128F9D105B030BD30B587
:1044300085B004460D46009400208DF809008DF8E3
:10444000080008208DF80A004D208DF80B004F2140
:104450008DF80C1000218DF80D108DF80E108DF8D0
:104460000F508DF810108DF811108DF8121069464C
:10447000594811F01BF800BF0021574811F0AEF861
:104480000128F9D105B030BD00B585B040F27F30CC
:10449000009000208DF809008DF8080004208DF8A8
:1044A0000A0053208DF80B0050218DF80C100021CC
:1044B0008DF80D108DF80E106946494810F0F6FF82
:1044C00000BF0021464811F089F80128F9D105B054
:1044D00000BD2DE9F04385B004460D464248056015
:1044E000007846B240480088000A47B23E4800685B
:1044F000000C4FFA80F83C480068000E4FFA80F933
:10450000009400208DF809008DF8080008208DF82F
:104510000A0053208DF80B0050218DF80C1000215B
:104520008DF80D108DF80E10F1B28DF80F10F9B254
:104530008DF8101008F0FF018DF8111009F0FF013F
:104540008DF812106946264810F0B0FF00BF002118
:10455000234811F043F80128F9D105B0BDE8F083F4
:104560002DE9F04385B004460D46204805600078EB
:1045700046B21E480088000A47B21C480068000C7A
:104580004FFA80F819480068000E4FFA80F900943D
:1045900000208DF809008DF8080008208DF80A0029
:1045A00053208DF80B0050218DF80C1000218DF850
:1045B0000D108DF80E10F1B28DF80F10F9B28DF8C4
:1045C000101008F0FF018DF8111009F0FF018DF8AF
:1045D0001210694600480BE000640040BC01002056
:1045E00000680040D8010020B4010020D001002064
:1045F00010F05CFF00BF0021FC4810F0EFFF012825
:10460000F9D105B0BDE8F0832DE9F04385B004464B
:104610000D46F7480560007846B2F5480088000A64
:1046200047B2F3480068000C4FFA80F8F048006881
:10463000000E4FFA80F9009400208DF809008DF8E3
:10464000080008208DF80A0041208DF80B00432156
:104650008DF80C1000218DF80D108DF80E10F1B2B0
:104660008DF80F10F9B28DF8101008F0FF018DF8D9
:10467000111009F0FF018DF812106946DD4810F0A5
:1046800015FF00BF0021DB4810F0A8FF0128F9D179
:1046900005B0BDE8F0832DE9F04385B004460D4632
:1046A000D5480560007846B2D3480088000A47B272
:1046B000D1480068000C4FFA80F8CF480068000E1F
:1046C0004FFA80F9009400208DF809008DF8080059
:1046D00008208DF80A0041208DF80B0043218DF849
:1046E0000C1000218DF80D108DF80E10F1B28DF820
:1046F0000F10F9B28DF8101008F0FF018DF81110AD
:1047000009F0FF018DF812106946B84810F0CEFE8E
:1047100000BF0021B54810F061FF0128F9D105B0B4
:10472000BDE8F0832DE9F04385B004460D46B3485B
:104730000560007846B2B1480088000A47B2AF4829
:104740000068000C4FFA80F8AC480068000E4FFA81
:1047500080F9009400208DF809008DF808000820E9
:104760008DF80A0044208DF80B0043218DF80C10C1
:1047700000218DF80D108DF80E10F1B28DF80F108C
:10478000F9B28DF8101008F0FF018DF8111009F042
:10479000FF018DF812106946964810F087FE00BFA1
:1047A0000021944810F01AFF0128F9D105B0BDE8A6
:1047B000F0832DE9F04385B004460D46904805602E
:1047C000007846B28E480088000A47B28C480068DC
:1047D000000C4FFA80F88A480068000E4FFA80F902
:1047E000009400208DF809008DF8080008208DF84D
:1047F0000A0044208DF80B0043218DF80C10002195
:104800008DF80D108DF80E10F1B28DF80F10F9B271
:104810008DF8101008F0FF018DF8111009F0FF015C
:104820008DF812106946714810F040FE00BF00215B
:104830006E4810F0D3FE0128F9D105B0BDE8F08331
:104840002DE9F04385B004460D466E4805600078BA
:1048500046B26C480088000A47B26A480068000CFB
:104860004FFA80F867480068000E4FFA80F900940C
:1048700000208DF809008DF8080008208DF80A0046
:1048800053208DF80B0044218DF80C1000218DF879
:104890000D108DF80E10F1B28DF80F10F9B28DF8E1
:1048A000101008F0FF018DF8111009F0FF018DF8CC
:1048B000121069464F4810F0F9FD00BF00214D4825
:1048C00010F08CFE0128F9D105B0BDE8F0832DE988
:1048D000F04385B004460D464B480560007846B26B
:1048E00049480088000A47B247480068000C4FFA60
:1048F00080F845480068000E4FFA80F900940020C7
:104900008DF809008DF8080008208DF80A00532062
:104910008DF80B0044218DF80C1000218DF80D103E
:104920008DF80E10F1B28DF80F10F9B28DF810104D
:1049300008F0FF018DF8111009F0FF018DF8121039
:1049400069462A4810F0B2FD00BF0021274810F048
:1049500045FE0128F9D105B0BDE8F0832DE9F0430B
:1049600085B004460D4629480560007846B22748C0
:104970000088000A47B225480068000C4FFA80F80A
:1049800022480068000E4FFA80F9009400208DF84C
:1049900009008DF8080008208DF80A0053208DF8D2
:1049A0000B0046218DF80C1000218DF80D108DF8AC
:1049B0000E10F1B28DF80F10F9B28DF8101008F04A
:1049C000FF018DF8111009F0FF018DF812106946F2
:1049D000084810F06BFD00BF0021064810F0FEFDF6
:1049E0000128F9D105B0BDE8F08300000064004063
:1049F000B801002000680040D4010020C801002058
:104A0000E4010020C4010020E0010020CC010020CE
:104A10002DE9F04385B004460D46FE480560007858
:104A200046B2FC480088000A47B2FA480068000C09
:104A30004FFA80F8F7480068000E4FFA80F90094AA
:104A400000208DF809008DF8080008208DF80A0074
:104A500053208DF80B0046218DF80C1000218DF8A5
:104A60000D108DF80E10F1B28DF80F10F9B28DF80F
:104A7000101008F0FF018DF8111009F0FF018DF8FA
:104A800012106946E44810F011FD00BF0021E24811
:104A900010F0A4FD0128F9D105B0BDE8F08330B5D0
:104AA00085B004460D46009400208DF809008DF86D
:104AB000080004208DF80A0048208DF80B004D21D5
:104AC0008DF80C108DF80D5040218DF80E106946B0
:104AD000D24810F0EBFC00BF0021D04810F07EFD62
:104AE0000128F9D105B030BD70B586B004460E4638
:104AF0001546019400208DF80D008DF80C0008205B
:104B00008DF80E0048208DF80F004D218DF8101003
:104B10008DF8116000218DF812108DF813508DF86A
:104B200014108DF815108DF8161001A9BB4810F05F
:104B3000BDFC00BF0021B94810F050FD0128F9D19B
:104B400006B070BD4FF00051B54A1160B54A116012
:104B50001146096881ED000AB14909680868704783
:104B60002DE9F0432DED028B85B00546B0EE408A6D
:104B70000024B0EE480AFFF7E5FF044666B2200ABB
:104B800047B2200C4FFA80F8200E4FFA80F90095BA
:104B900000208DF809008DF8080008208DF80A0023
:104BA00004208DF80B0043218DF80C1000218DF8A6
:104BB0000D1080218DF80E10F1B28DF80F10F9B2A2
:104BC0008DF8101008F0FF018DF8111009F0FF01A9
:104BD0008DF812106946914810F068FC00BF002162
:104BE0008E4810F0FBFC0128F9D105B0BDEC028B1A
:104BF000BDE8F0832DE9F0472DED028B86B0054628
:104C00000E46B0EE408A0024B0EE480AFFF79AFF45
:104C1000044667B2200A4FFA80F8200C4FFA80F958
:104C2000200E4FFA80FA019500208DF80D008DF8C6
:104C30000C0008208DF80E0043208DF80F004C2149
:104C40008DF810108DF8116080218DF812108DF8FC
:104C500013708DF814808DF815908DF816A001A9A9
:104C60006E4810F023FC00BF00216C4810F0B6FC29
:104C70000128F9D106B0BDEC028BBDE8F0872DE923
:104C8000F0472DED028B86B005460E46B0EE408A09
:104C90000024B0EE480AFFF755FF044667B2200A29
:104CA0004FFA80F8200C4FFA80F9200E4FFA80FA64
:104CB000019500208DF80D008DF80C0008208DF86E
:104CC0000E0050208DF80F004C218DF810108DF83B
:104CD000116080218DF812108DF813708DF81480FA
:104CE0008DF815908DF816A001A94C4810F0DEFB48
:104CF00000BF0021494810F071FC0128F9D106B02D
:104D0000BDEC028BBDE8F08710B586B00446019477
:104D100000208DF80D008DF80C0004208DF80E0099
:104D200042208DF80F0047218DF8101000218DF8DA
:104D300011108DF8121001A9384810F0B7FB00BF10
:104D40000021364810F04AFC0128F9D106B010BD08
:104D500010B586B00446019400208DF80D008DF842
:104D60000C0004208DF80E0042208DF80F00472122
:104D70008DF8101000218DF811108DF8121001A976
:104D8000254810F093FB00BF0021234810F026FCBB
:104D90000128F9D106B010BD10B586B004460194C3
:104DA00000208DF80D008DF80C0004208DF80E0009
:104DB00053208DF80F0054218DF8101000218DF82C
:104DC00011108DF8121001A9144810F06FFB00BFEC
:104DD0000021124810F002FC0128F9D106B010BDE4
:104DE00010B586B00446019400208DF80D008DF8B2
:104DF0000C0004208DF80E0053208DF80F00542174
:104E00008DF8101000218DF811108DF8121001A9E5
:104E1000014809E0E801002000640040006800400B
:104E2000800300208403002010F040FB00BF00211D
:104E3000FC4810F0D3FB0128F9D106B010BD10B525
:104E400086B00446019400208DF80D008DF80C000A
:104E500008208DF80E0050208DF80F0058218DF895
:104E6000101000218DF8111040218DF81210002132
:104E70008DF813108DF814108DF815108DF816108C
:104E800001A9E94810F012FB00BF0021E64810F02C
:104E9000A5FB0128F9D106B010BD10B586B00446B7
:104EA000019400208DF80D008DF80C0008208DF87D
:104EB0000E0050208DF80F0058218DF810100021A1
:104EC0008DF8111040218DF8121000218DF813106B
:104ED0008DF814108DF815108DF8161001A9D14811
:104EE00010F0E4FA00BF0021CE4810F077FB012853
:104EF000F9D106B010BD10B586B00446019400206B
:104F00008DF80D008DF80C0004208DF80E00502057
:104F10008DF80F0045218DF8101000218DF811102B
:104F200040218DF8121001A9BF4810F0BFFA00BF50
:104F30000021BD4810F052FB0128F9D106B010BD88
:104F400010B586B00446019400208DF80D008DF850
:104F50000C0004208DF80E0056208DF80F0058210B
:104F60008DF8101000218DF8111040218DF81210CD
:104F700001A9AD4810F09AFA00BF0021AA4810F02C
:104F80002DFB0128F9D106B010BD10B586B004463E
:104F9000019400208DF80D008DF80C0004208DF890
:104FA0000E0056208DF80F0045218DF810100021BD
:104FB0008DF8111040218DF8121001A99A4810F0B7
:104FC00075FA00BF0021984810F008FB0128F9D1BC
:104FD00006B010BD10B586B00446019400208DF8CF
:104FE0000D008DF80C0004208DF80E0041208DF886
:104FF0000F0043218DF8101000218DF81110402171
:105000008DF8121001A9884810F050FA00BF002155
:10501000854810F0E3FA0128F9D106B010BD10B5AB
:1050200086B00446019400208DF80D008DF80C0028
:1050300004208DF80E0049208DF80F0051218DF8C5
:10504000101000218DF8111040218DF8121001A9C7
:10505000754810F02BFA00BF0021734810F0BEFA1B
:105060000128F9D106B010BD10B586B004460194F0
:1050700000208DF80D008DF80C0004208DF80E0036
:1050800049208DF80F0051218DF8101000218DF866
:10509000111040218DF8121001A9624810F006FA93
:1050A00000BF00215F4810F099FA0128F9D106B03D
:1050B00010BD10B586B00446019400208DF80D0097
:1050C0008DF80C0004208DF80E0045208DF80F009F
:1050D00043218DF8101000218DF8111040218DF81A
:1050E000121001A94F4810F0E1F900BF00214D480E
:1050F00010F074FA0128F9D106B010BD10B586B0D1
:105100000446019400208DF80D008DF80C00042059
:105110008DF80E004D208DF80F0046218DF81010EF
:1051200000218DF8111040218DF8121001A93D4881
:1051300010F0BCF900BF00213A4810F04FFA0128E6
:10514000F9D106B010BD10B586B004460194002018
:105150008DF80D008DF80C0004208DF80E00532002
:105160008DF80F0052218DF8101000218DF81110CC
:1051700040218DF8121001A92A4810F097F900BFBC
:105180000021284810F02AFA0128F9D106B010BDF4
:1051900010B586B00446019400208DF80D008DF8FE
:1051A0000C0004208DF80E0041208DF80F004E21D8
:1051B0008DF8101003218DF8111040218DF8121078
:1051C00001A9184810F072F900BF0021154810F02D
:1051D00005FA0128F9D106B010BD10B586B0044615
:1051E000019400208DF80D008DF80C0004208DF83E
:1051F0000E0041208DF80F004E218DF81010042173
:105200008DF8111040218DF8121001A9054810F0F9
:105210004DF900BF0021034810F0E0F90128F9D151
:1052200006B010BD006400400068004010B586B0B4
:105230000446019400208DF80D008DF80C00042028
:105240008DF80E0041208DF80F004E218DF81010C2
:1052500005218DF8111040218DF8121001A9F64892
:1052600010F024F900BF0021F34810F0B7F901282D
:10527000F9D106B010BD10B586B0044601940020E7
:105280008DF80D008DF80C0004208DF80E004120E3
:105290008DF80F004E218DF8101006218DF8111099
:1052A00040218DF8121001A9E34810F0FFF800BF6B
:1052B0000021E14810F092F90128F9D106B010BDA3
:1052C00010B586B00446019400208DF80D008DF8CD
:1052D0000C0004208DF80E0045208DF80F004521AC
:1052E0008DF8101001218DF8111040218DF8121049
:1052F00001A9D14810F0DAF800BF0021CE4810F023
:105300006DF90128F9D106B010BD10B586B004467C
:10531000019400208DF80D008DF80C0004208DF80C
:105320000E0054208DF80F0049218DF81010012136
:105330008DF8111040218DF8121001A9BE4810F00F
:10534000B5F800BF0021BC4810F048F90128F9D198
:1053500006B010BD10B586B00446019400208DF84B
:105360000D008DF80C0004208DF80E0050208DF8F3
:105370000F0058218DF8101000218DF811104021D8
:105380008DF8121001A9AC4810F090F800BF002170
:10539000A94810F023F90128F9D106B010BD10B5C5
:1053A00086B00446019400208DF80D008DF80C00A5
:1053B00004208DF80E0056208DF80F0058218DF82E
:1053C000101000218DF8111040218DF8121001A944
:1053D000994810F06BF800BF0021974810F0FEF8D4
:1053E0000128F9D106B010BD10B586B0044601946D
:1053F00000208DF80D008DF80C0004208DF80E00B3
:1054000053208DF80F004F218DF8101000218DF8DA
:10541000111040218DF8121001A9874810F046F8AC
:1054200000BF0021844810F0D9F80128F9D106B056
:1054300010BD10B586B00446019400208DF80D0013
:105440008DF80C0004208DF80E0050208DF80F0010
:1054500059218DF8101000218DF8111040218DF880
:10546000121001A9744810F021F800BF0021724801
:1054700010F0B4F80128F9D106B010BD10B586B00F
:105480000446019400208DF80D008DF80C000420D6
:105490008DF80E0054208DF80F0049218DF8101062
:1054A00000218DF8111040218DF8121001A96248D9
:1054B0000FF0FCFF00BF00215F4810F08FF80128BB
:1054C000F9D106B010BD10B586B004460194002095
:1054D0008DF80D008DF80C0004208DF80E0054207E
:1054E0008DF80F0049218DF8101000218DF8111052
:1054F00040218DF8121001A950480FF0D7FF00BFCE
:1055000000214E4810F06AF80128F9D106B010BD0C
:1055100010B586B00446019400208DF80D008DF87A
:105520000C0004208DF80E0045208DF80F0043215B
:105530008DF8101000218DF8111040218DF81210F7
:1055400001A93E480FF0B2FF00BF00213B4810F018
:1055500045F80128F9D106B010BD10B586B0044653
:10556000019400208DF80D008DF80C0004208DF8BA
:105570000E004D208DF80F0046218DF810100021EF
:105580008DF8111040218DF8121001A92B480FF051
:105590008DFF00BF0021294810F020F80128F9D123
:1055A00006B010BD10B586B00446019400208DF8F9
:1055B0000D008DF80C0004208DF80E0053208DF89E
:1055C0000F0052218DF8101000218DF8111040218C
:1055D0008DF8121001A919480FF068FF00BF0021D3
:1055E00016480FF0FBFF0128F9D106B010BD10B529
:1055F00086B00446019400208DF80D008DF80C0053
:1056000004208DF80E0041208DF80F004E218DF8FA
:10561000101003218DF8111040218DF8121001A9EE
:1056200006480FF043FF00BF002104480FF0D6FFEB
:105630000128F9D106B010BD0064004000680040A8
:1056400010B586B00446019400208DF80D008DF849
:105650000C0004208DF80E0041208DF80F004E2123
:105660008DF8101004218DF8111040218DF81210C2
:1056700001A9AC480FF01AFF00BF0021A9480FF0A4
:10568000ADFF0128F9D106B010BD10B586B00446B3
:10569000019400208DF80D008DF80C0004208DF889
:1056A0000E0041208DF80F004E218DF810100521BD
:1056B0008DF8111040218DF8121001A999480FF0B2
:1056C000F5FE00BF002197480FF088FF0128F9D1AF
:1056D00006B010BD10B586B00446019400208DF8C8
:1056E0000D008DF80C0004208DF80E0041208DF87F
:1056F0000F004E218DF8101006218DF81110402159
:105700008DF8121001A987480FF0D0FE00BF0021CC
:1057100084480FF063FF0128F9D106B010BD10B521
:1057200086B00446019400208DF80D008DF80C0021
:1057300004208DF80E0045208DF80F0045218DF8CE
:10574000101001218DF8111040218DF8121001A9BF
:1057500074480FF0ABFE00BF002172480FF03EFF0F
:105760000128F9D106B010BD10B586B004460194E9
:1057700000208DF80D008DF80C0004208DF80E002F
:1057800054208DF80F0049218DF8101001218DF85B
:10579000111040218DF8121001A962480FF086FE09
:1057A00000BF00215F480FF019FF0128F9D106B0B2
:1057B00010BD10B586B00446019400208DF80D0090
:1057C0008DF80C0004208DF80E0050208DF80F008D
:1057D00058218DF8101000218DF8111040218DF8FE
:1057E000121001A94F480FF061FE00BF00214D4883
:1057F0000FF0F4FE0128F9D106B010BD10B586B047
:105800000446019400208DF80D008DF80C00042052
:105810008DF80E0056208DF80F0058218DF81010CD
:1058200000218DF8111040218DF8121001A93D487A
:105830000FF03CFE00BF00213A480FF0CFFE0128D8
:10584000F9D106B010BD10B586B004460194002011
:105850008DF80D008DF80C0004208DF80E005320FB
:105860008DF80F004F218DF8101000218DF81110C8
:1058700040218DF8121001A92A480FF017FE00BF31
:10588000002128480FF0AAFE0128F9D106B010BD6A
:105890002DE9F0432DED028B85B00546B0EE408A30
:1058A0000024B0EE480AFFF74DF9044666B2200A1C
:1058B00047B2200C4FFA80F8200E4FFA80F900957D
:1058C00000208DF809008DF8080008208DF80A00E6
:1058D00041208DF80B0053218DF80C1001218DF81B
:1058E0000D1080218DF80E10F1B28DF80F10F9B265
:1058F0008DF8101008F0FF018DF8111009F0FF016C
:105900008DF81210694607480FF0D0FD00BF002146
:1059100004480FF063FE0128F9D105B0BDEC028BFD
:10592000BDE8F0830068004010B501201A490870F6
:105930001A480068401C19490860802010F0A1F93D
:1059400010BD1FB50121084611F0BAF901218803E5
:1059500011F0FAF900208DF804008DF807000320FB
:105960008DF805008020009069460D4810F062FF18
:105970000721002011F0F0FA8020029000208DF81D
:105980000C0008208DF80D0001208DF80E0002A8F3
:1059900010F000F91FBD0000F9030020FC030020F7
:1059A0000000024000B59FB00121782011F088F975
:1059B0000121084611F0A6F94FF63370009002203D
:1059C0008DF804008DF8050000208DF806008DF894
:1059D00007006946984810F02DFF4FF6BB70009005
:1059E0006946964810F026FF4FF23F000090694646
:1059F000934810F01FFF41F23F60009069469148C4
:105A000010F018FF0C2200218B4810F09EFF0C2292
:105A10000121894810F099FF0C220421864810F0DA
:105A200094FF0C220521844810F08FFF0C220821DE
:105A3000814810F08AFF0C2209217F4810F085FF71
:105A40000C220A217C4810F080FF0C220B217A489E
:105A500010F07BFF0C221146774810F076FF0C22E5
:105A60000D21754810F071FF0C220E21724810F0C4
:105A70006CFF0C220F21704810F067FF0C220021F0
:105A80006E4810F062FF0C2201216C4810F05DFF9F
:105A90000C220321694810F058FF0C2204216748AA
:105AA00010F053FF0C220521644810F04EFF0C2229
:105AB0000721624810F049FF0C2208215F4810F0CE
:105AC00044FF0C2209215D4810F03FFF0C220A21FF
:105AD0005A4810F03AFF0C220B21584810F035FFBD
